:020000040800F2
:10000000B8160020F12D00088104000883040008C0
:10001000870400088B0400088F040008000000001B
:100020000000000000000000000000009304000831
:1000300095040008000000009704000899040008D7
:100040000B2E00080B2E00080B2E00080B2E0008AC
:100050000B2E00080B2E00080B2E00080B2E00089C
:100060000B2E00080B2E00080B2E00080B2E00088C
:100070000B2E00080B2E00080B2E00080B2E00087C
:100080000B2E00080B2E00080B2E00080B2E00086C
:100090000B2E00080B2E00080B2E00080B2E00085C
:1000A0000B2E00080B2E00080B2E00080B2E00084C
:1000B000F70300080B2E00080B2E00080B2E00087B
:1000C0000B2E00080B2E00080B2E00080B2E00082C
:1000D0000B2E00080B2E00080B2E00080B2E00081C
:1000E0000B2E00080B2E00080B2E000800F002F863
:1000F00000F03AF80AA090E8000C82448344AAF188
:100100000107DA4501D100F02FF8AFF2090EBAE885
:100110000F0013F0010F18BFFB1A43F0010318473B
:10012000782E0000982E0000103A24BF78C878C1BD
:10013000FAD8520724BF30C830C144BF04680C60ED
:10014000704700000023002400250026103A28BF35
:1001500078C1FBD8520728BF30C148BF0B60704739
:100160001FB51FBD10B510BD02F0DCFE1146FFF734
:10017000F7FF00F007F902F0FAFE03B4FFF7F2FF11
:1001800003BC02F001FF000010B500F04AFC00F0D3
:100190007FFC002000F0DDFC10BDC020A5490870E8
:1001A000A8204870002088700120C870FF20A24954
:1001B0000870487088700020C8700C209F49087033
:1001C00029204870AB2088707C20C87000200871FE
:1001D00001204871C0209A490870A820487000206A
:1001E00088706A20C870132096490870882048706B
:1001F000002095490870704710B594480078F8B908
:100200009148007860B9002000F0EBFCFF2803D192
:1002100001208E49087020E000208C4908701CE005
:100220008948007801280CD1002000F0B7FCFF2895
:1002300003D10120854908700FE000208349087030
:100240000BE0002000F000FDFF2803D103207F49D0
:10025000087002E000207D49087010BD70B50446AA
:100260007B49204600F0AEFA05462A46784979488F
:1002700002F0DEFD2A467749204600F038FB70BDCB
:100280000EB50121084601F0D8FB0920ADF80400A5
:1002900041F61F40ADF800000020ADF80600ADF8B3
:1002A000020069464FF0804001F078FE01221146BD
:1002B000900702F0EAF90121880702F0CBF90EBDA0
:1002C00008B500214FF0006000F079FD4FF4C060E8
:1002D00000F03EFD1C208DF8000000208DF801008C
:1002E0008DF8020001208DF80300684600F035FD0E
:1002F00008BD10B501F026FA4FF4803001F042FA43
:1003000001F07FFA0446012C2FD1102000F0A2FD4D
:10031000022000F08BFD002001F0B9FA002001F06E
:10032000C8FAA00201F0BCFA4FF4E011200401F079
:1003300091FA012001F09AFA00BF392001F045FA44
:100340000028FAD0022001F094FA00BF01F09AFAD6
:100350000828FBD1012001F09BFB0121084601F098
:100360006CFB01213D2001F05BFB10BD10B5FFF7D8
:10037000C0FFFFF7A5FF00F0A6F8FFF781FF00F030
:100380008DF810BDFFF7F2FFFFF707FF00F02FFB1E
:10039000FFF7FAFE2EE0FFF72FFF00F073FC2E4868
:1003A000007800F0010048B12B48007820F00100EF
:1003B000294908700020FFF751FF1BE0274800681B
:1003C000B0F5FA7F16D32148007803280FD12248D0
:1003D000007820F0020020490870172220A11D4853
:1003E00002F026FD17221B49002000F080FA0020B1
:1003F0001A490860CFE710B50121880702F0F3FB26
:1004000001280DD10121800702F0FEFB1B48006886
:10041000401C1A49086011480068401C0F490860D8
:1004200010BD0021154A116000BF144909688142BE
:10043000FBD37047080000200C00002010000020B3
:10044000160000201A0000202800002029000020AB
:1004500054000020540800202A000020040000203E
:100460000D0A57656C636F6D6520546F204E69529D
:10047000656E456C6563210D0A00000000000020D8
:10048000704700BFFEE700BFFEE700BFFEE700BF0A
:10049000FEE77047704770477047000008B54FF49B
:1004A0000040ADF8000001208DF8020010208DF80A
:1004B00003006946FA4800F0F7FF4FF40041F8489E
:1004C00001F0A1F808BD00B587B0012141F2050097
:1004D00001F0A6FAE020ADF8180003208DF81A000C
:1004E00018208DF81B0006A9ED4800F0DDFFE02183
:1004F000EB4801F086F81020ADF8180003208DF8C5
:100500001A0010208DF81B0006A9E54800F0CCFF6A
:100510001021E34801F075F80020ADF804004FF415
:100520008270ADF806000020ADF80800ADF80A00B2
:10053000ADF80C004FF40070ADF80E000020ADF8DF
:100540001000ADF812000720ADF8140001A9D5483D
:1005500001F0F0FA0121D34801F091FB07B000BD92
:1005600010B504462146CF4801F0BAFB00BF022176
:10057000CC4801F008FC0028F9D010BD70B5044645
:100580002546E11704EB1161C1F30720FFF7E8FFEF
:10059000E0B2FFF7E5FF70BD70B505460C461021CF
:1005A000BF4801F030F82846FFF7E8FF0520FFF7C5
:1005B000D7FF2046FFF7D4FF1021B94801F021F8FA
:1005C00070BD70B505460C461021B54801F01BF80A
:1005D0002846FFF7D3FF0620FFF7C2FF2046FFF7AC
:1005E000CDFF1021AE4801F00CF870BD2DE9F041AF
:1005F00007460C4615461021A94801F004F8384674
:10060000FFF7BCFF0420FFF7ABFF002605E014F85E
:10061000010BFFF7A5FF701C86B2AE42F7DB10217D
:100620009F4800F0EEFFBDE8F08170B504460D462E
:10063000164610219A4800F0E6FF2846FFF79EFF75
:10064000082101EB4411C9B241F00500FFF788FF12
:100650003046FFF785FF1021914800F0D2FF70BDB2
:1006600070B504460D46164610218D4800F0CBFFAC
:100670002846FFF783FF082101EB4411C9B241F07E
:100680000600FFF76DFF3046FFF778FF1021844822
:1006900000F0B7FF70BD70B505460E461446102138
:1006A0007F4800F0B0FF3046FFF768FF082101EBFC
:1006B0004511C9B241F00700FFF752FF14F8010BD2
:1006C000FFF74EFF14F8010BFFF74AFF14F8010B78
:1006D000FFF746FF14F8010BFFF742FF10217048A7
:1006E00000F08FFF70BD70B5044610216C4800F01B
:1006F0008AFF2046FFF742FF0120FFF731FF6948DC
:1007000001F0F0FAC5B20020FFF72AFF654801F0BA
:10071000E9FAC5B21021624800F073FF284670BDA7
:1007200070B504460D4610215D4800F06CFF284668
:10073000FFF724FF082101EB4411C9B241F0010089
:10074000FFF70EFF574801F0CDFAC6B20020FFF7C1
:1007500007FF544801F0C6FAC6B21021504800F015
:1007600050FF304670BD70B505460E4610214C480E
:1007700000F049FF3046FFF701FF082101EB45116A
:10078000C9B241F00200FFF7EBFE464801F0AAFAB9
:1007900004460020FFF7E4FE424801F0A3FA0446B5
:1007A0000020FFF7DDFE4FF6FF7000EA04243D480D
:1007B00001F098FA204484B21021394800F021FF5A
:1007C000204670BD2DE9F04780460D462621404663
:1007D000FFF7C9FF064616B90020BDE8F08740F2D2
:1007E000B450864200DD064628214046FFF7BBFF95
:1007F0000746B946C7F30A071021294800F003FF4E
:100800003846FFF7BBFE182101EB4811C8B2FFF7CD
:10081000A7FE244801F066FA00F0FF0AB819B0F507
:10082000006F11DA00240CE00020FFF799FE1D484C
:1008300001F058FA00F0FF0A85F800A06D1C601C5A
:1008400084B2B442F0DB3EE0C7F5006087B200241A
:100850000CE00020FFF784FE124801F043FA00F09C
:10086000FF0A85F800A06D1C601C84B2BC42F0DB5E
:1008700010210B4800F0C5FE1021094800F0C3FE0E
:100880000020FFF77BFE182101EB4811C8B2FFF7EB
:1008900067FE044801F026FA00F0FF0A11E00000AC
:1008A00000080140003001400020FFF759FEFE48DB
:1008B00001F018FA00F0FF0A85F800A06D1C601C1A
:1008C00084B2B442F0DB1021F84800F09AFE09EB44
:1008D00006001FFA80F94A4628214046FFF7C0FE6D
:1008E000402201214046FFF7A0FE304675E72DE982
:1008F000F04707460D46904600213846FFF710FFA7
:1009000000F00F0022280ED0E94A0C213846FFF7EC
:10091000C2FEE8484178007801EB002082B2102145
:100920003846FFF79DFE24213846FFF71CFF064698
:10093000B146C6F30A061021DC4800F064FE3046DA
:10094000FFF71CFE102101EB4711C9B241F0040072
:10095000FFF706FE06EB0800B0F5006F0ADA002488
:1009600005E015F8010BFFF7FBFD601C84B2444560
:10097000F7DB28E0C6F5006086B2002405E015F834
:10098000010BFFF7EDFD601C84B2B442F7DB1021D0
:10099000C64800F036FE1021C44800F034FE0020A6
:1009A000FFF7ECFD102101EB4711C9B241F0040043
:1009B000FFF7D6FD05E015F8010BFFF7D1FD601C30
:1009C00084B24445F7DB1021B84800F01AFE09EB69
:1009D00008001FFA80F94A4624213846FFF740FEF6
:1009E000202201213846FFF720FEBDE8F08710B530
:1009F0004FF40041AD4800F006FE3220FFF711FD34
:100A00004FF40041A94800F0FCFDC820FFF709FDA4
:100A100000BF2E20FFF767FE00F001000028F8D08D
:100A200010BD10B5002480210020FFF7B5FD0A207D
:100A3000FFF7F7FC0422A0490120FFF7D7FD0422AD
:100A40009E490520FFF7D2FD06229D490920FFF7A8
:100A5000CDFD04229B490F20FFF7C8FD00BF0BE02E
:100A600002221E212046FFF7E0FD02221F21204620
:100A7000FFF7DBFD601CC4B2082CF1DB4FF4FA6118
:100A80001920FFF79EFD08211B20FFF785FD10BDF3
:100A900038B58C480078401CC0B28DF800008948F9
:100AA0004078401CC0B28DF8010086488078401C18
:100AB000C0B28DF802008348C078401CC0B28DF8E7
:100AC00003006A460C210020FFF7E5FD012200210A
:100AD0000846FFF7AAFD012211460020FFF7A5FDF9
:100AE0000520FFF79EFC03210020FFF719FE1328C5
:100AF00006D0102201210020FFF797FD002038BD0D
:100B0000042201210020FFF790FD00BF00240221F4
:100B10000020FFF705FE044624B1224602210020F2
:100B2000FFF783FD0520FFF77CFC04F00800082890
:100B300001D10020E3E706210020FFF7F1FDFF28A7
:100B400006D0102201210020FFF76FFDFF20D6E71D
:100B5000DCE710B5044640F2B45212210020FFF742
:100B60007FFD082C17D2DFE804F0040F10111213D8
:100B7000141555484178007801EB002082B2042119
:100B80000020FFF76DFD07E006E005E004E003E06C
:100B900002E001E000E000BF00BF10BD10B5044658
:100BA000012200212046FFF740FD01221146204688
:100BB000FFF73BFD0520FFF734FC03212046FFF73C
:100BC000AFFD132806D0102201212046FFF72DFD8E
:100BD000002010BD042201212046FFF726FDFF2042
:100BE000F7E710B50446012200212046FFF71DFD5E
:100BF000012211462046FFF718FD0520FFF711FCE2
:100C000003212046FFF78CFD132806D01022012176
:100C10002046FFF70AFD002010BD022201212046D8
:100C2000FFF703FD0520FFF7FCFB03212046FFF73C
:100C300077FD142806D0102201212046FFF7F5FC8D
:100C40000020E9E7FF20E7E710B504460222002173
:100C50002046FFF7EAFC012211462046FFF7E5FC9B
:100C60000520FFF7DEFB03212046FFF759FD222870
:100C700006D0102201212046FFF7D7FC002010BD2E
:100C8000FF20FCE770B500BF1720FFF72CFD0546DD
:100C900005F00100002850D002210020FFF740FDA0
:100CA00004462246022111E00030014000080140C4
:100CB0002200002026000020080000200C00002058
:100CC00010000020160000201A0000200020FFF76E
:100CD000ACFC04F0010028B11B48007840F0020091
:100CE0001949087004F0020050B1102201210020BF
:100CF000FFF79BFC0020FFF72CFF00201249087033
:100D000004F0100028B11148007840F002000F49AB
:100D1000087004F0040028B10C48007840F001008D
:100D20000A49087004F0080038B11022012100209F
:100D3000FFF77BFC0020044908701720FFF7D3FC65
:100D400000B1A1E770BD0000290000202A000020AA
:100D500031490143314A1160704770B500210023C9
:100D60000F22C47804B32D4C246804F4E064C4F565
:100D7000E064210AC1F10403CA40447804FA03F193
:100D80008478144021430901254C0678A155047844
:100D900004F01F050124AC4005786D11AD0005F18C
:100DA000E025C5F8004109E0047804F01F0501249E
:100DB000AC401C4D0678761145F8264070BD1A4AA5
:100DC0000A400243154B1B1F1A60704739B1134A82
:100DD000121D12680243114B1B1D1A6006E00F4AD8
:100DE000121D126882430D4B1B1D1A6070470428A8
:100DF00008D14FF0E021096941F004014FF0E022F1
:100E0000116107E04FF0E021096921F004014FF082
:100E1000E0221161704700000000FA050CED00E0CF
:100E200000E400E080E100E080FFFF1F01460020B9
:100E3000FE4A106800F03800084310607047FB4914
:100E4000096821F00801F94A116011460968014357
:100E500011607047F549096821F01001F34A1160EB
:100E600011460968014311607047F148EF49486035
:100E7000F04848607047EE48EC494860ED484860EB
:100E80007047EA48006940F08000E849086170470F
:100E9000E648006940F08000E4490861704704209A
:100EA000E249C96801F0010109B101200EE0DF4902
:100EB000C96801F0040109B1022007E0DB49C968F3
:100EC00001F0100109B1032000E00420704700B5D3
:100ED00002460423FFF7E3FF034603E0FFF7DFFFCB
:100EE0000346521E012B01D1002AF7D102B9052376
:100EF000184600BD30B5044604254FF43020FFF7F6
:100F0000E6FF0546042D17D1C848006940F00200ED
:100F1000C649086108464461006940F04000086124
:100F20004FF43020FFF7D3FF0546C048006941F673
:100F3000FD710840BD490861284630BD10B5042444
:100F40004FF43020FFF7C3FF0446042C16D1B748F6
:100F5000006940F00400B54908610846006940F0A6
:100F6000400008614FF43020FFF7B1FF0446AF485E
:100F7000006941F6FB710840AC490861204610BD8C
:100F800000B502460423FFF78AFF034603E0FFF79C
:100F900086FF0346521E012B01D1002AF7D102B968
:100FA0000523184600BD10B504244FF43020FFF788
:100FB000E7FF0446042C16D19C48006940F0040069
:100FC0009A4908610846006940F0400008614FF402
:100FD0003020FFF7D5FF04469448006941F6FB71C5
:100FE000084092490861204610BD00208F49C96918
:100FF00001F0020109B1012000E00020704730B586
:10100000A5250424FFF7F1FF00B100254FF430209F
:10101000FFF75DFF0446042C3AD185488349886078
:10102000844888600846006940F02000086108464E
:10103000006940F0400008614FF43020FFF747FF9F
:101040000446042C1BD17948006941F6DF71084041
:10105000764908610846006940F01000086176484A
:101060000580E002FFF733FF0446052C10D06F48DF
:10107000006941F6EF7108406C49086108E0052CF1
:1010800006D06A48006941F6EF7108406749086177
:10109000204630BD78B506460C4604250020009059
:1010A000E802FFF714FF0546042D24D15F480069CC
:1010B00040F001005D4908613480E802FFF707FF56
:1010C0000546042D10D1B01C0090200C009908801A
:1010D000E802FFF7FCFE05465448006941F6FE7140
:1010E00008405249086106E05048006941F6FE7127
:1010F00008404E490861284678BD70B504460D4643
:101100000426F002FFF7E3FE0646042E11D14748FD
:10111000006940F00100454908612580F002FFF7B1
:10112000D6FE06464148006941F6FE7108403F4937
:101130000861304670BD70B505460E460424E002D5
:10114000FFF7C5FE0446042C17D13948374988609B
:10115000384888600846006940F0100008612E8019
:10116000E002FFF7B4FE0446052C06D02F480069C4
:1011700041F6EF7108402D490861204670BD2DE908
:10118000F04304464FF6FF763746B046B146042595
:10119000E443E6B2C4F30727C4F307484FEA1469EF
:1011A000E802FFF794FE0546042D49D120481F4967
:1011B0008860204888600846006940F01000086197
:1011C000FF2E06D01C4808300680E802FFF77FFE9D
:1011D0000546042D08D1FF2F06D017480A30078096
:1011E000E802FFF774FE0546042D0AD1B8F1FF0F9F
:1011F00007D011480C30A0F80080E802FFF767FE26
:101200000546042D0AD1B9F1FF0F07D00A480E3068
:10121000A0F80090E802FFF75AFE0546052D0FD012
:101220000248006941F6EF71084007E000200240E3
:1012300023016745AB89EFCD00F8FF1F66490861C0
:101240002846BDE8F08330B5054604244FF430202D
:10125000FFF73DFE0446042C41D160485E4988609A
:101260005F4888600846006940F020000861084631
:10127000006940F0400008614FF43020FFF727FE7E
:101280000446042C22D15448006941F6DF7108401D
:10129000514908610846006940F0100008611DB11D
:1012A00000205049088002E0A5204E4908804FF4F4
:1012B0003020FFF70CFE0446052C10D0464800698C
:1012C00041F6EF7108404449086108E0052C06D05A
:1012D0004148006941F6DF7108403F4908612046F6
:1012E00030BDF0B505460E46174604243B483A4942
:1012F00088603B488860E002FFF7E9FD0446042C63
:1013000019D13548006940F010003349086147F0B1
:10131000F800304328433349891C0880E002FFF776
:10132000D6FD0446052C06D02B48006941F6EF7126
:101330000840294908612046F0BD2748C069800857
:1013400070472548006A704700202349096801F06A
:10135000200109B1012000E00020704729B11E4A98
:10136000126902431C4B1A6104E01B4A1269824352
:10137000194B1A61704701460020012908D1164A0D
:10138000D26902F001020AB1012008E0002006E063
:10139000114AD2680A400AB1012000E000207047DB
:1013A0000D49C860704704200B49C96801F001016C
:1013B00009B101200EE00849C96801F0040109B132
:1013C000022007E00449C96801F0100109B10320B7
:1013D00000E0042070470000002002402301674520
:1013E000AB89EFCD00F8FF1F10B50446CC4884420E
:1013F00008D10121042000F02DFB0021042000F081
:1014000029FB46E0C748844208D10121082000F0AA
:1014100021FB0021082000F01DFB3AE0C248844275
:1014200008D10121102000F015FB0021102000F050
:1014300011FB2EE0BD48844208D10121202000F09C
:1014400009FB0021202000F005FB22E0B84884427F
:1014500008D10121402000F0FDFA0021402000F0D9
:10146000F9FA16E0B348844208D10121802000F047
:10147000F1FA0021802000F0EDFA0AE0AE48844243
:1014800007D10121801500F0E5FA0021A01500F038
:10149000E1FA10BD10B50121084600F0DBFA002189
:1014A000012000F0D7FA10BD2DE9F04102460025D9
:1014B0000026002000230024002791F803C00CF030
:1014C0000F0591F803C00CF0100CBCF1000F03D015
:1014D00091F802C04CEA050591F800C0BCF1000F7C
:1014E00031D0146800202BE04FF0010C0CFA00F30F
:1014F000B1F800C00CEA03069E4220D183004FF0F1
:101500000F0C0CFA03F7BC4305FA03FC4CEA040485
:1015100091F803C0BCF1280F06D14FF0010C0CFA72
:1015200000FCC2F814C00AE091F803C0BCF1480FF7
:1015300005D14FF0010C0CFA00FCC2F810C0401CA1
:101540000828D1D31460B1F800C0BCF1FF0F34DD1E
:10155000546800202EE000F1080C4FF0010808FA52
:101560000CF3B1F800C00CEA03069E4221D18300BF
:101570004FF00F0C0CFA03F7BC4305FA03FC4CEADE
:10158000040491F803C0BCF1280F05D100F1080C48
:1015900008FA0CF8C2F8148091F803C0BCF1480FA7
:1015A00007D100F1080C4FF0010808FA0CF8C2F856
:1015B0001080401C0828CED35460BDE8F0814FF65F
:1015C000FF710180022181700421C17070470246C1
:1015D000002093680B400BB1012000E00020704711
:1015E0000146886880B2704702460020D3680B40ED
:1015F0000BB1012000E0002070470146C86880B2AE
:10160000704701617047416170470AB1016100E0B4
:1016100041617047C16070474FF480320A43826174
:101620008161826182698269704702460020434B72
:1016300018684FF68073184040EA021008433F4B89
:10164000186070473E49C8617047F0B50A460023EC
:1016500000240021002500F00046B6F1004F02D121
:10166000364EF16901E0354E7168C0F3034583B22F
:1016700000F44016B6F5401F08D121F070612F4EDE
:10168000766826F070662D4F7E6012E000F48016BA
:10169000B6F5801F06D1032606FA05F4A14341F0F2
:1016A000706106E0460D360103FA06F6B14341F0DB
:1016B000706122B1460D360103FA06F6314300F09F
:1016C0000046B6F1004F02D11C4EF16101E01B4E05
:1016D0007160F0BD30B500228B071C0F0F2303FA99
:1016E00004F2164B08338C1053F824309343134CF8
:1016F00008348D1044F8253023468C1053F82430DC
:101700008C07240F00FA04F423430C4C08348D108A
:1017100044F8253030BD0A49DC31086070470000CC
:1017200000080140000C014000100140001401407D
:1017300000180140001C0140002001400000014051
:1017400000002042DF48006840F00100DD490860E9
:1017500008464068DC490840DA49486008460068A5
:10176000DA490840D74908600846006820F480201C
:1017700008600846406820F4FE0048604FF41F00EF
:1017800088607047CF49096821F48031CD4A1160E3
:101790001146096821F480211160B0F5803F03D023
:1017A000B0F5802F0ED106E0C649096841F48031BA
:1017B000C44A116007E0C349096841F4A021C14A45
:1017C000116000E000BF00BF704710B50146002265
:1017D000002300204A11012A02D1BA4C236806E0F6
:1017E000022A02D1B74C236A01E0B64C636A01F0C9
:1017F0001F02012494401C400CB1012000E0002095
:1018000010BD38B5002000900024002500BF312015
:10181000FFF7DBFF05460098401C00900098B0F5EC
:10182000A06F01D0002DF2D03120FFF7CEFF08B11C
:10183000012400E00024204638BD01460020A14AD2
:10184000106820F0F80040EAC10010607047A0491D
:1018500008607047024600209A4B586820F47C10BC
:1018600042EA01031843974B58607047984908664D
:10187000704701460020934A506820F00300084357
:10188000506070478F48406800F00C007047014678
:1018900000208C4A506820F0F000084350607047E8
:1018A00001460020874A506820F4E06008435060F9
:1018B000704701460020834A506820F4605040EA97
:1018C000C1005060704729B17E4A527A02437D4B75
:1018D0005A7204E07B4A527A82437A4B5A727047BA
:1018E0007B49D8310860704701460020754A50682E
:1018F00020F440400843506070470021714A203274
:101900001170704A82F82010012802D004280AD1F0
:1019100004E001216B4A2032117005E00521694A7B
:101920002032117000E000BF00BF704769490860B5
:1019300070476449096A0143624A11627047654908
:1019400044390860704730B500210022002400238C
:101950005C4D6D6805F00C0121B1042905D0082902
:1019600023D105E05C4D056022E05B4D05601FE082
:10197000544D6D6805F47012524D6D6805F4803455
:10198000022505EB92421CB9544D554305600BE00E
:101990004C4D6D6805F400351DB1504D5543056043
:1019A00002E04D4D5543056002E04B4D056000BF20
:1019B00000BF444D6D6805F0F0010909484D6B5CAE
:1019C0000568DD4045603F4D6D6805F4E061090A3A
:1019D000434D6B5C4568DD4085603A4D6D6805F4AC
:1019E0006051C90A3E4D6B5C4568DD40C560354DB0
:1019F0006D6805F44041890B3A4D6B5CC568B5FBD9
:101A0000F3F5056130BD29B12E4A526902432D4BD1
:101A10005A6104E02B4A526982432A4B5A6170474B
:101A200029B1284A92690243264B9A6104E0254A6B
:101A300092698243234B9A61704729B1214AD26946
:101A40000243204BDA6104E01E4AD26982431D4BF7
:101A5000DA61704729B11B4AD2680243194BDA6038
:101A600004E0184AD2688243164BDA60704729B105
:101A7000144A12690243134B1A6104E0114A1269B5
:101A80008243104B1A617047124940390860704711
:101A90000F49C86470470B49C87170470948406ACC
:101AA00040F0807007494862704701460020054AAF
:101AB00092680A400AB1012000E000207047014905
:101AC00088727047001002400000FFF8FFFFF6FE2A
:101AD000000042428004424200127A0000093D00A8
:101AE0002C0000203C00002010B50446BE48844273
:101AF00008D101218014FFF7ADFF0021A014FFF7EA
:101B0000A9FF16E0B948844208D101210014FFF76B
:101B1000AEFF00212014FFF7AAFF0AE0B448844278
:101B200007D10121C013FFF7A2FF0021E013FFF747
:101B30009EFF10BD10B50022028802F441520B88AE
:101B40004C8823438C882343CC8823430C8923432C
:101B50004C8923438C892343CC8923431A43028035
:101B6000838B4FF2FF74234083830B8A038210BD63
:101B70002DE9F04F85B005460C464FF000090227CD
:101B80004FF000084FF0010B0026B246A88B4FF231
:101B900040010840A88302202884B5F81C90A06862
:101BA000022801D100BF38E0A08810B94FF0010B26
:101BB00001E04FF0020B8D48854200D100E000BFEC
:101BC0006846FFF7C0FEDDF800A0E088B0F5007FB2
:101BD0000AD14FEA1A2000EB80004000A168B0FB58
:101BE000F1F0401D86B20BE04FEA4B10BAFBF0F06B
:101BF00000EB80004000A168B0FBF1F0401D86B210
:101C00000A20B6FBF0F606F00108A6EB0800C0F3C8
:101C10004F074FF6FF7000EA0828022F01DBFF2F65
:101C200002DD02274FF00008E08840EA0800384350
:101C30002884A088A1890843618808432188084333
:101C400040F4006040EA0909A5F81C9005B0BDE821
:101C5000F08F0021018041808180C180018141811C
:101C60008181C1810721018270470021018041806B
:101C70008180C1800221816000218181704721B172
:101C8000028842F04002028004E002884FF6BF73EF
:101C90001A400280704721B1828B42F480628283B5
:101CA00004E0828B4FF6FF331A408283704730B5D1
:101CB000002400230C110125A540ABB21AB1858880
:101CC0001D43858002E085889D43858030BD1AB123
:101CD00083880B43838002E083888B438380704733
:101CE000818170470146888970474FF6FF629142B3
:101CF00004D0028842F48072028004E002884FF629
:101D0000FF631A400280704721B1828842F00402CA
:101D1000828004E082884FF6FB731A40828070470D
:101D200002884FF2FF731A40028002880A43028041
:101D30007047018841F480510180704721B10288C9
:101D400042F40052028004E002884DF6FF731A400C
:101D50000280704702460020012901D0108B00E06C
:101D6000908A70470146088A7047B1F5804F04D1C8
:101D7000028842F48042028004E002884BF6FF733E
:101D80001A40028070470246002013890B400BB1B5
:101D9000012000E000207047CA4302817047F0B57F
:101DA0000246002000240023002501F00F07012631
:101DB000BE40B4B20B1101269E40B3B2968806EA2B
:101DC00003051689264016B10DB1012000E0002060
:101DD000F0BD10B5002201F00F040123A3409AB218
:101DE000D343038110BD00000030014000380040A3
:101DF000003C004010B50446FE48844208D1012151
:101E0000C014FFF727FE0021E014FFF723FEC4E013
:101E1000B4F1804F08D101210846FFF728FE0021C8
:101E20000120FFF724FEB8E0F348844208D10121E5
:101E30000220FFF71CFE00210220FFF718FEACE095
:101E4000EE48844208D101210420FFF710FE002152
:101E50000420FFF70CFEA0E0E948844208D10121EC
:101E60000820FFF704FE00210820FFF700FE94E0A1
:101E7000E448844208D101211020FFF7F8FD002139
:101E80001020FFF7F4FD88E0DF48844208D10121EB
:101E90002020FFF7ECFD00212020FFF7E8FD7CE08B
:101EA000DA48844208D101214014FFF7D3FD002114
:101EB0006014FFF7CFFD70E0D548844209D10121BD
:101EC000C804FFF7C7FD00214FF40020FFF7C2FD53
:101ED00063E0D048844209D101210805FFF7BAFD2B
:101EE00000214FF48010FFF7B5FD56E0CA48844248
:101EF00009D101214805FFF7ADFD00214FF4001085
:101F0000FFF7A8FD49E0C548844208D101214020DF
:101F1000FFF7ADFD00214020FFF7A9FD3DE0C048DF
:101F2000844208D101218020FFF7A1FD00218020FB
:101F3000FFF79DFD31E0BB48844208D101218015A7
:101F4000FFF795FD0021A015FFF791FD25E0B648AC
:101F5000844209D101210804FFF77CFD00214FF4E0
:101F60008030FFF777FD18E0B048844209D10121A5
:101F70004804FFF76FFD00214FF40030FFF76AFDC2
:101F80000BE0AB48844208D101218804FFF762FDD1
:101F900000214FF48020FFF75DFD10BD0022028874
:101FA000944B98420ED0994B98420BD0B0F1804F91
:101FB00008D0914B984205D0904B984202D0904B5C
:101FC000984204D14FF68F731A404B881A438D4BB9
:101FD000984207D08C4B984204D04FF6FF431A40EA
:101FE000CB881A4302808B8883850B880385814BBD
:101FF00098420BD0854B984208D08B4B984205D025
:102000008A4B984202D08A4B984201D10B7A0386C0
:1020100001238382704770B5002400220023058CC1
:102020004FF6FE7635400584028C8388048B4FF68C
:102030008F752C40B51E2C400D882C43751E2A40F0
:102040000D892A434D882A436A4DA8420BD06F4D13
:10205000A84208D0744DA84205D0744DA84202D0C1
:10206000734DA84213D14FF6F7752A404D892A4384
:102070004FF6FB752A408D882A434FF6FF652B40AB
:102080004FF6FF552B408D892B43CD892B43838001
:102090000483CD888586028470BD70B5002400223B
:1020A0000023058C4FF6EF7635400584028C83883B
:1020B000048B48F6FF752C404FF6FF452C400D88E9
:1020C0004FF6FF7606EA05252C434FF6DF752A40CA
:1020D0000D8906EA05152A434D8806EA05152A43A7
:1020E000444DA84202D0494DA8421DD14FF67F75FC
:1020F0002A404D894FF6FF7606EA05152A434FF62A
:10210000BF752A408D8806EA05152A434FF6FF352C
:102110002B404FF2FF752B408D8906EA85052B4336
:10212000CD8906EA85052B4383800483CD88058706
:10213000028470BD70B5002400220023058C4FF688
:10214000FF6635400584028C8388848B4FF68F753B
:102150002C404FF6FC752C400D882C434FF6FF5554
:102160002A400D894FF6FF7606EA05252A434D8859
:1021700006EA05252A431F4DA84202D0234DA84256
:102180001DD14FF2FF752A404D894FF6FF7606EAC2
:1021900005252A434FF6FF352A408D8806EA052596
:1021A0002A434EF6FF752B404DF6FF752B408D8967
:1021B00006EA05152B43CD8906EA05152B438380D6
:1021C0008483CD888587028470BD70B5002200238A
:1021D0000024058C4EF6FF7635400584038C8488F8
:1021E000828B48F6FF752A404FF6FF452A400D883E
:1021F00020E00000002C01400004004000080040E6
:10220000000C004000100040001400400034014069
:10221000004C0140005001400054014000180040B3
:10222000001C0040002000400040014000440140EC
:10223000004801404FF6FF7606EA05252A434DF691
:10224000FF752B400D8906EA05352B434D8806EABC
:1022500005352B43FA4DA84202D0FA4DA84208D1C9
:102260004BF6FF752C408D894FF6FF7606EA8515F3
:102270002C4384808283CD88A0F84050038470BDB5
:10228000828B4FF2FF331A408283828B4FF6FF73AB
:1022900003EA01231A4382837047F0B50C461546C2
:1022A000002200210026078C4EF6FF7C07EA0C076F
:1022B0000784828B018C4FF6FF7707EA043640F6DD
:1022C000FF473A404FF6FF7707EA05273A434FF6B4
:1022D000FF7707EA03373A43D94FB8420ED0D94FB8
:1022E000B8420BD0B0F1804F08D0D74FB84205D0DC
:1022F000D64FB84202D0D64FB84206D14DF6FF773E
:10230000394046F48057394305E047F6FF573940D6
:1023100044F48057394382830184F0BD828B4FF6A9
:10232000F3731A408283828B0A4382837047F0B52D
:102330000C461546002200210026078C4FF6FF6C44
:1023400007EA0C070784828B018C4FF6FF7707EAB8
:1023500004264FF60C773A404FF6FF7707EA03174B
:102360002F433A43B64FB8420ED0B64FB8420BD0C7
:10237000B0F1804F08D0B44FB84205D0B34FB84247
:1023800002D0B34FB84206D14FF6FF57394046F45A
:102390008077394305E04FF2FF57394044F48077A6
:1023A000394382830184F0BD028B4FF2FF331A4020
:1023B0000283028B4FF6FF7303EA01231A43028361
:1023C0007047F0B50C461546002200210026078C08
:1023D0004FF6EF7C07EA0C070784028B018C4FF65F
:1023E000FF7707EA041640F6FF473A404FF6FF77BB
:1023F00007EA03373A434FF6FF7707EA05273A43E0
:102400008F4FB8420ED08F4FB8420BD0B0F1804FF3
:1024100008D08D4FB84205D08C4FB84202D08C4FB7
:10242000B84206D14FF6DF77394046F010073943FE
:1024300005E04FF65F77394044F0100739430283D7
:102440000184F0BD028B4FF6F3731A400283028BB6
:102450000A4302837047F0B50C461546002200215E
:10246000068C4FF6FE773E400684028B018C4FF6B9
:102470000C7632407E1C06EA03162E433243704E21
:10248000B0420ED06F4EB0420BD0B0F1804F08D0AA
:102490006D4EB04205D06D4EB04202D06C4EB0428F
:1024A00006D14FF6FD76314044F00106314305E098
:1024B0004FF6F576314044F0010631430283018442
:1024C000F0BD70B505460C465D4885420ED05D48AE
:1024D00085420BD0B5F1804F08D05B48854205D0CE
:1024E0005A48854202D05A48854200D100E000BFD8
:1024F000208850B92389A28861882846FFF7ABFF5E
:10250000E1882846FFF79EFF25E0208804280AD1AD
:102510002389A28861882846FFF753FFE18828466F
:10252000FFF742FF17E0208808280AD12389A288F4
:1025300061882846FFF7FBFEE1882846FFF7EEFE9C
:1025400009E02389A28861882846FFF7A6FEE18872
:102550002846FFF795FE70BD2DE9F04105460C4673
:1025600000260127608808B9022600E00026A0881E
:10257000012801D1022700E001272088A0B9238982
:10258000A28861882846FFF766FFE1882846FFF7A2
:1025900059FF23893A4631462846FFF712FFE18862
:1025A0002846FFF701FF13E02389A28861882846A7
:1025B000FFF707FFE1882846FFF7F6FE23893A4632
:1025C00031462846FFF747FFE1882846FFF73AFFE4
:1025D000BDE8F0810A884B881A438B881A43CB8860
:1025E0001A430B891A434B891A438B891A43A0F863
:1025F000442070474FF6FF71818000210180C18027
:102600004180017270470021018041808180C1803A
:10261000018141818181C181704700210180418018
:10262000012181800021C18001817047002101804A
:1026300041808180C180018141818181704700009A
:10264000002C01400034014000040040000800401C
:10265000000C004021B1028842F00102028004E037
:1026600002884FF6FE731A400280704731B1B0F80D
:10267000442042F40042A0F8442005E0B0F8442091
:10268000C2F30E02A0F8442070471AB183890B43AD
:10269000838102E083898B43838170478182704705
:1026A00041EA0203A0F8483070471AB183890B430E
:1026B000838102E083898B438381704701894FF6D0
:1026C000F8721140018170470A46002101894FF6D6
:1026D0008F73194011430181704730B504460D4690
:1026E00029462046FFF7F0FF208940F007002081AF
:1026F00030BD2DE9F04104460D4616461F46602DBB
:1027000006D13B46012231462046FFF75AFE05E03E
:102710003B46012231462046FFF79DFE29462046D2
:10272000FFF7D2FF208940F007002081BDE8F0814B
:1027300030B50C4600210189C9B24FF6FF7505EA94
:102740000325154325432943018130BD2DE9F0417F
:1027500005460E4617469846002443463A463146FB
:102760002846FFF7E5FF2C894FF6F870044044F047
:1027700007044FF68F70044044F070042C81BDE8CC
:10278000F081F0B504460D4616461F463B463246DC
:1027900029462046FFF7CCFF208940F48040208165
:1027A000F0BD0185828270470A46002101884FF6FC
:1027B0008F731940114301807047F0B50C461546E0
:1027C0001E460021002200230189028B038C4FF654
:1027D000F877394021434FF6FC473A4040F2011761
:1027E0003A434FF6DD773B404FF6FF7707EA06178F
:1027F0002F433B43018102830384F0BD0A4600213D
:10280000018B4FF68F7319401143018370470A46BD
:102810000021018B48F6FF7319404FF6FF7303EA5E
:1028200002231943018370470A460021818B4FF62A
:102830008F7319401143818370470A460021818BB1
:1028400048F6FF7319404FF6FF7303EA022319435A
:102850008183704721B1028842F08002028004E047
:1028600002884FF67F731A400280704721B1828838
:1028700042F00402828004E082884FF6FB731A4023
:102880008280704721B1828842F00802828004E091
:1028900082884FF6F7731A408280704721B1828890
:1028A00042F00102828004E082884FF6FE731A40F3
:1028B000828070470A460021018B4FF6F77319405A
:1028C0001143018370470A460021018B4FF2FF73C9
:1028D00019404FF6FF7303EA02231943018370473F
:1028E0000A460021818B4FF6F7731940114381830B
:1028F00070470A460021818B4FF2FF7319404FF653
:10290000FF7303EA02231943818370470A460021BB
:10291000018B4FF6FB7319401143018370470A4640
:102920000021018B4FF6FF3319404FF6FF7303EA86
:1029300002231943018370470A460021818B4FF619
:10294000FB7319401143818370470A460021818B34
:102950004FF6FF3319404FF6FF7303EA0223194382
:10296000818370470A460021018B4FF67F7319401F
:102970001143018370470A460021018BC1F30E0108
:102980004FF6FF7303EA02231943018370470A4697
:102990000021818B4FF67F7319401143818370476B
:1029A0000A460021818BC1F30E014FF6FF7303EA43
:1029B00002231943818370470A460021018C4FF698
:1029C000FD7319401143018470470A460021018CB0
:1029D0004FF6F77319401143018470470A460021EE
:1029E000018C4FF6DF7319404FF6FF7303EA0213B1
:1029F0001943018470470A460021018C4FF67F730A
:102A000019404FF6FF7303EA02131943018470471C
:102A10000A460021018C4FF6FF5319404FF6FF7311
:102A200003EA02231943018470470A460021018CFE
:102A30004FF2FF7319404FF6FF7303EA0223194365
:102A4000018470470A460021018C4DF6FF7319403E
:102A50004FF6FF7303EA023319430184704730B520
:102A6000002301248C40A3B2048C9C430484048C76
:102A700002FA01F5ADB22C43048430BD30B5002319
:102A800004248C40A3B2048C9C430484048C02FA7A
:102A900001F5ADB22C43048430BD70B5034600206F
:102AA00000241846183001258D40ACB21D8CA5437A
:102AB0001D8409B1082909D100EB6100056825F0E2
:102AC000700505600568154305600EE00D1FC5F330
:102AD0004E052844056825F4E045056005684FF675
:102AE000FF7606EA02263543056070BD21B10288F3
:102AF00042F00202028004E002884FF6FD731A40A1
:102B00000280704721B1028842F00402028004E092
:102B100002884FF6FB731A400280704721B1828809
:102B200042F08002828004E082884FF67F731A4070
:102B30008280704702884FF6F7731A40028002883D
:102B40000A430280704782884FF68F731A40828052
:102B500082880A438280704702894FF6F8731A40D0
:102B6000028102890A430281704702894FF67F730E
:102B70001A40028102890A430281704781847047AA
:102B800081857047818670470187704781877047CC
:102B9000A0F84010704702884FF6FF431A400280A9
:102BA00002880A43028070470146888E70470146BA
:102BB000088F70470146888F70470146B1F8400082
:102BC00070470146888C70470146088D7047024661
:102BD0000020138A0B400BB1012000E00020704759
:102BE000CA430282704730B5024600200023002409
:102BF000158A05EA0103958905EA010413B10CB1B0
:102C0000012000E0002030BDCA430282704700006E
:102C10000CB50020019000906C48006840F48030B2
:102C20006A49086000BF6948006800F400300090FD
:102C30000198401C0190009818B90198B0F5A06F58
:102C4000F1D16248006800F4003010B1012000901A
:102C500001E0002000900098012843D15C48006802
:102C600040F010005A4908600846006820F0030050
:102C700008600846006840F0020008605348406859
:102C8000524948600846406848600846406840F439
:102C9000806048600846406820F47C104860084620
:102CA000406840F4E81048600846006840F08070D2
:102CB000086000BF4548006800F000700028F9D0A7
:102CC0004248406820F00300404948600846406898
:102CD00040F00200486000BF3C48406800F00C0033
:102CE0000828F9D10CBD10B5FFF792FF10BD10B543
:102CF0003648006840F001003449086008464068E2
:102D00003449084031494860084600683249084063
:102D10002E4908600846006820F4802008600846B4
:102D2000406820F4FE0048604FF41F008860FFF701
:102D3000DAFF4FF000602949086010BD10B500218E
:102D400000200022214B5B6803F00C0121B1042913
:102D500006D0082928D107E0214B224C236027E028
:102D60001F4B204C236023E0184B5B6803F470106A
:102D7000164B5B6803F48032022303EB904022B9C8
:102D8000194B4343174C23600DE0104B5B6803F471
:102D9000003323B1144B4343124C236003E0104B28
:102DA0004343104C236003E00D4B0E4C236000BFE7
:102DB00000BF064B5B68C3F303130C4CE15C094B8B
:102DC0001B68CB40074C236010BD00000010024080
:102DD000002002400000FFF8FFFFF6FE08ED00E0D3
:102DE00000127A004000002000093D00440000204D
:102DF0000948804709480047FEE7FEE7FEE7FEE78F
:102E0000FEE7FEE7FEE7FEE7FEE7FEE704480549CA
:102E1000054A064B70470000EF2C0008ED00000843
:102E2000B8100020B8160020B8120020B8120020F8
:102E3000032A40F2308010F0030C00F0158011F8E6
:102E4000013BBCF1020F624498BF11F801CB00F8BE
:102E5000013B38BF11F8013BA2F1040298BF00F812
:102E600001CB38BF00F8013B11F0030300F02880CC
:102E7000083AC0F0088051F8043B083A51F804CBF6
:102E8000A0E80810F5E7121D5CBF51F8043B40F8BC
:102E9000043BAFF30080D20724BF11F8013B11F8C7
:102EA00001CB48BF11F8012B24BF00F8013B00F80B
:102EB00001CB48BF00F8012B70477047704770473F
:102EC00010B5203AC0F00B80B1E81850203AA0E8C5
:102ED0001850B1E81850A0E81850BFF4F5AF5FEAF9
:102EE000027C24BFB1E81850A0E8185044BF18C9AC
:102EF00018C0BDE810405FEA827C24BF51F8043B53
:102F000040F8043B08BF7047D20728BF31F8023BA6
:102F100048BF11F8012B28BF20F8023B48BF00F83A
:102F2000012B7047754600F02BF8AE460500694648
:102F3000534620F00700854618B020B5FFF766FF1E
:102F4000BDE820404FF000064FF000074FF00008AA
:102F50004FF0000B21F00701AC46ACE8C009ACE82B
:102F6000C009ACE8C009ACE8C0098D46704710B58F
:102F70000446AFF300802046BDE81040FDF7FDB8E1
:102F8000004870475410002001491820ABBEFEE7EE
:102F90002600020070470000B82F00080000002043
:102FA00054000000280100080C30000854000020E4
:102FB000641600004401000800000000000000004A
:102FC0000000000000000000000000000000000001
:102FD00000000000000000000000000000000000F1
:102FE00003000000000000000102030401020304CA
:102FF000060708090204060800A24A0400000000AF
:0C3000000000000001020304060708099C
:04000005080000ED02
:00000001FF
