:020000040800F2
:100000003006002045010008E9050008EB0500085E
:10001000EF050008F3050008F705000800000000E0
:10002000000000000000000000000000FB050008C8
:10003000FD05000800000000FF050008010600089B
:100040005F0100085F0100085F0100085F01000810
:100050005F0100085F0100085F0100085F01000800
:100060005F0100085F0100085F0100085F010008F0
:100070005F0100085F0100085F0100085F010008E0
:100080005F0100085F0100085F0100085F010008D0
:100090005F0100085F0100085F0100085F010008C0
:1000A0005F0100085F0100085F0100085F010008B0
:1000B000130600085F0100085F0100085F010008E7
:1000C0005F0100085F0100085F0100085F01000890
:1000D0005F0100085F0100085F0100085F01000880
:1000E0005F0100085F0100085F0100085F01000870
:1000F0005F0100085F0100085F0100085F01000860
:100100005F0100085F0100085F0100085F0100084F
:100110005F0100085F0100085F0100085F0100083F
:100120005F0100085F0100085F0100085F0100082F
:10013000DFF80CD002F0FEFE004800475D03000827
:10014000300600200648804706480047FEE7FEE7E5
:10015000FEE7FEE7FEE7FEE7FEE7FEE7FEE7FEE777
:10016000572300083101000808B50121202001F0C3
:1001700027FC4FF48070ADF8000010208DF80300CC
:1001800003208DF802006946264801F05DF901213F
:10019000202001F015FC4FF40070ADF80000102095
:1001A0008DF8030003208DF8020069461D4801F018
:1001B0004BF90121202001F003FC4FF48060ADF8E1
:1001C000000010208DF8030003208DF8020069461E
:1001D000144801F039F90121202001F0F1FB4FF41E
:1001E0000060ADF8000010208DF8030003208DF8AA
:1001F000020069460B4801F027F94FF48071094865
:1002000001F0D1F94FF40071064801F0CCF94FF438
:100210008061044801F0C7F94FF40061014801F022
:10022000C2F908BD000C01401CB50821D24801F0FC
:10023000B8F9642000F0C2FA00BF2E2000F0B5FD2E
:1002400000F001000028F8D08021002000F0DCFB45
:10025000142000F0B3FAC0208DF80000A8208DF81B
:10026000010001208DF802008DF803000422694688
:1002700000F054FCFF208DF800008DF801008DF88F
:10028000020000208DF8030004226946052000F0DA
:1002900045FC48208DF8000053208DF80100002017
:1002A0008DF8020057208DF8030055208DF80400CA
:1002B00000208DF8050006226946092000F02EFC7A
:1002C000C0208DF80000A8208DF8010001208DF8D5
:1002D000020080208DF80300042269460F2000F000
:1002E0001DFC1CBD10B5A548047804F0010028B120
:1002F0004FF48071A24801F054F904E04FF480718A
:100300009F4801F050F904F0020028B14FF4007149
:100310009B4801F046F904E04FF40071984801F061
:1003200042F904F0040028B14FF48061944801F0D0
:1003300038F904E04FF48061914801F034F904F099
:10034000080028B14FF400618D4801F02AF904E05B
:100350004FF400618A4801F026F910BD00F0CAF997
:1003600000F0FEF9FFF760FFC82000F027FA4FF415
:10037000FB7002F0FCFBC82000F020FA02F077FCD2
:1003800080A002F0E9FD85A002F0E6FD1EE0032159
:10039000002000F054FD04467CB985A002F0DCFD8D
:1003A00000BF85A002F0D8FD642000F007FA00200D
:1003B00000F0B2FF0028F4D008E0172C06D182A08C
:1003C00002F0CAFD02F078FCFFF78CFFDFE7F0B522
:1003D00004460D460020B5F57A7F32DBAE18B6F53F
:1003E0007B7F2EDC7B4E3688A91B13B1012B27D1D6
:1003F00011E00DE0784E36F81160361204F8016B0A
:10040000754E16F8116004F8016B491C561EB2B205
:10041000002AEFDC14E010E014F8017B3E026E4F7E
:1004200027F8116014F8016B37F811703E436A4FDA
:1004300027F81160491C561EB2B2002AECDC00BF3E
:1004400000E00120F0BD30B503460020B1F57A7F11
:1004500018DB8D18B5F57B7F14DC604D2D884C1BA7
:100460000DE05F4D35F814502D1203F8015B5C4D23
:1004700015F8145003F8015B641C551EAAB2002A3B
:10048000EFDC00E0012030BD2DE9F04705460E46C7
:10049000904699464FF0000A4446B6F57A7F37DB1E
:1004A00006EB0800B0F57E7F32DCA6F57A7087B2E5
:1004B000B9F1000F03D0B9F1010F28D113E00FE01B
:1004C000082C01DD082000E02046C2B239462B4846
:1004D00002F0B8FA05F8010B083C07F1080087B2F2
:1004E000002CEDDC13E00FE015F8013B082C01DDDA
:1004F000082000E02046C2B23946204802F072FAD5
:10050000083C07F1080087B2002CEDDC00BF01E0D9
:100510004FF0010A5046BDE8F0872DE9F047054647
:100520000C4616464FF0000937B2B4F57A7F1EDB51
:10053000A019B0F57E7F1ADCA4F57A701FFA80F856
:1005400012E0082F01DD082000E03846C2B2414623
:10055000244802F077FA05F8010BA7F1080007B26A
:1005600008F108001FFA80F8002FEADC01E04FF0E4
:1005700001094846BDE8F08700080140140000204A
:10058000000C01400D0A4D6F646275732D54435089
:10059000205374617274210D0A00000049503A31F1
:1005A00039322E3136382E312E3132380D0A0000D4
:1005B0000D0A69660D0A00000D0A646F20776869EC
:1005C0006C650D0A000000000D0A656C73652069FA
:1005D000660D0A0000000020020000200A00002032
:1005E0000C00002016000020704700BFFEE700BF8F
:1005F000FEE700BFFEE700BFFEE7704770477047A9
:100600000448006820B103480068401E01490860A2
:10061000704770471800002000B587B0012108031B
:1006200001F0CEF90121042001F0CAF9E020ADF873
:10063000180003208DF81A0018208DF81B0006A959
:10064000454800F001FF4020ADF8180048208DF823
:100650001B0006A9404800F0F7FE1020ADF8180076
:1006600003208DF81A0010208DF81B0006A93A48C7
:1006700000F0EAFE1021384800F093FF0020ADF8AA
:1006800004004FF48270ADF806000020ADF80800B9
:10069000ADF80A00ADF80C004FF40070ADF80E0094
:1006A0000820ADF810000020ADF812000720ADF8CA
:1006B000140001A9294801F07FFC0121274801F01D
:1006C00020FD07B000BD08B50121042001F078F934
:1006D0000820ADF8000003208DF8020010208DF8EE
:1006E000030069461C4800F0AFFE08211A4800F0DC
:1006F0005AFF08BD10B5FFF78FFFFFF7E4FFFFF7C4
:1007000033FD4FF4E13000F069F800F09FF810BDC0
:1007100010B5044622460421002000F08AFA41F276
:1007200070721921002000F084FA03221B2100209E
:1007300000F07FFA40F2B4521221002000F079FA62
:1007400002221E21002000F030FA02221F21002088
:1007500000F02BFA10BD00000008014000300140FD
:1007600030B51A4800684FF47A72B0FBF2F1B1F17B
:10077000807F01D301201DE021F07F40401E4FF01B
:10078000E022506150170F22002807DA13071D0ED0
:100790000F4B00F00F04241F1D5503E013071C0E20
:1007A0000C4B1C5400BF00204FF0E022906107204A
:1007B0001061002008B100BFFEE730BD06490860A7
:1007C00000BF054909680029FBD1704730000020AF
:1007D00018ED00E000E400E01800002010B586B03D
:1007E0000446012144F2040001F0EAF84FF40070DD
:1007F000ADF8140018208DF8170003208DF81600AE
:1008000005A97F4800F020FE4FF48060ADF8140089
:1008100004208DF8170005A9794800F015FE019411
:100820000020ADF80800ADF80A00ADF80C00ADF8F6
:1008300010000C20ADF80E0001A9724801F0D5F9A6
:100840000121704801F05DFA06B010BD08B54FF403
:10085000407001F019F925208DF8000002208DF874
:10086000010000208DF8020001208DF80300684689
:1008700001F00FF908BD70B504460D46E1B26148BC
:1008800001F0ACFA00BF5F48008800F0800000284B
:10089000F9D0204670BDF0B503460D461646002738
:1008A00029460A2E03D0002008702846F0BD33B92F
:1008B000302001F8010B002008702846F6E7002BD5
:1008C00003DA2D2001F8010B5B4242F210720DE0B9
:1008D00093FBF2F404B937B104F1300001F8010BD5
:1008E00004FB123301270A2092FBF0F2002AEFDC0E
:1008F000002008702846D9E70FB470B586B00646C8
:100900000CA8019073E00B9800785C281CD10B9820
:10091000401C0B9000786E2809D072280FD10D2151
:10092000304601F05BFA0B98401C0B900BE00A215B
:10093000304601F053FA0B98401C0B9003E00B98E3
:10094000401C0B9000BF4BE00B980078252840D14D
:100950000B98401C0B900078642818D0732833D172
:10096000019810C801900BE02178304601F036FA6A
:1009700000BF4021304601F09FFA0028F9D0641CE6
:1009800020780028F0D10B98401C0B9020E00198B3
:1009900020C801900A2202A92846FFF77CFF02AC7A
:1009A0000BE02178304601F019FA00BF40213046B3
:1009B00001F082FA0028F9D0641C20780028F0D1D8
:1009C0000B98401C0B9003E00B98401C0B9000BF51
:1009D00006E00B9810F8011B0B90304601F0FEF971
:1009E00000BF4021304601F067FA0028F9D00B988B
:1009F0000078002887D106B070BC5DF814FB0000B9
:100A0000000801400038014070B504460E46102130
:100A1000FE4800F0C8FD2546E01704EB1060C0F367
:100A20000F21FB4801F09EFB00BF0221F84801F0B6
:100A3000ECFB0028F9D02146F54801F093FB00BFFC
:100A40000221F34801F0E1FB0028F9D00521F0482C
:100A500001F088FB00BF0221ED4801F0D6FB002821
:100A6000F9D03146EA4801F07DFB00BF0221E84899
:100A700001F0CBFB0028F9D01021E44800F091FDF3
:100A800070BD70B504460D461021E04800F08BFDA6
:100A90002646E01704EB1060C0F30F21DC4801F09C
:100AA00061FB00BF0221DA4801F0AFFB0028F9D05A
:100AB0002146D74801F056FB00BF0221D44801F07F
:100AC000A4FB0028F9D00621D14801F04BFB00BF60
:100AD0000221CF4801F099FB0028F9D02E46E817F3
:100AE00005EB1060C0F30F21C94801F03BFB00BFCC
:100AF0000221C74801F089FB0028F9D02946C448E3
:100B000001F030FB00BF0221C14801F07EFB00284C
:100B1000F9D01021BD4800F044FD70BD2DE9F04131
:100B200004460D4617461021B84800F03CFDA0468B
:100B3000E01704EB1060C0F30F21B54801F012FB81
:100B400000BF0221B24801F060FB0028F9D0214625
:100B5000AF4801F007FB00BF0221AD4801F055FB93
:100B60000028F9D00421AA4801F0FCFA00BF0221B4
:100B7000A74801F04AFB0028F9D000260DE02978AB
:100B8000A34801F0EFFA00BF0221A14801F03DFBAC
:100B90000028F9D06D1C701C86B2BE42EFDB10211C
:100BA0009A4800F0FEFCBDE8F0812DE9F0410546D1
:100BB0000C4616461021954800F0F5FC2746E01734
:100BC00004EB1060C0F30F21914801F0CBFA00BF95
:100BD00002218F4801F019FB0028F9D021468C48EA
:100BE00001F0C0FA00BF0221894801F00EFB002885
:100BF000F9D0082000EB451040F00501844801F0D1
:100C0000B1FA00BF0221824801F0FFFA0028F9D0B2
:100C100031467F4801F0A6FA00BF02217C4801F06E
:100C2000F4FA0028F9D01021784800F0BAFCBDE8A9
:100C3000F0812DE9F04106460D4614461021734817
:100C400000F0B1FC2F46E81705EB1060C0F30F2150
:100C50006F4801F087FA00BF02216D4801F0D5FA14
:100C60000028F9D029466A4801F07CFA00BF022129
:100C7000674801F0CAFA0028F9D0082000EB4610B6
:100C800040F00601624801F06DFA00BF02216048A1
:100C900001F0BBFA0028F9D02746E01704EB1060FA
:100CA000C0F30F215A4801F05DFA00BF02215848F5
:100CB00001F0ABFA0028F9D02146554801F052FA6C
:100CC00000BF0221524801F0A0FA0028F9D01021FB
:100CD0004E4800F066FCBDE8F0812DE9F041064683
:100CE0000D4614461021494800F05DFC2F46E817D8
:100CF00005EB1060C0F30F21454801F033FA00BF47
:100D00000221434801F081FA0028F9D029464048E1
:100D100001F028FA00BF02213D4801F076FA0028D0
:100D2000F9D0082000EB461040F00701384801F0E8
:100D300019FA00BF0221364801F067FA0028F9D0FD
:100D40002178334801F00EFA00BF0221304801F04B
:100D50005CFA0028F9D0641C21782D4801F002FAD1
:100D600000BF02212A4801F050FA0028F9D0641C83
:100D70002178274801F0F6F900BF0221244801F04C
:100D800044FA0028F9D0641C2178214801F0EAF9DE
:100D900000BF02211E4801F038FA0028F9D01021C6
:100DA0001A4800F0FEFBBDE8F08170B50446102142
:100DB000164800F0F8FB2646E01704EB1060C0F37D
:100DC0000F21134801F0CEF900BF0221104801F0B5
:100DD0001CFA0028F9D021460D4801F0C3F900BFE4
:100DE00002210B4801F011FA0028F9D0012108482E
:100DF00001F0B8F900BF0221054801F006FA002809
:100E0000F9D0034801F0B0F9C5B203E00008014091
:100E1000003001400021F94801F0A4F900BF02218F
:100E2000F64801F0F2F90028F9D0F44801F09CF9F5
:100E3000C5B21021F24800F0B4FB284670BD2DE980
:100E4000F04105460C461021ED4800F0ACFB27466A
:100E5000E01704EB1060C0F30F21E84801F082F9BD
:100E600000BF0221E54801F0D0F90028F9D0214661
:100E7000E24801F077F900BF0221E04801F0C5F92E
:100E80000028F9D0082000EB451040F00101DB48B4
:100E900001F068F900BF0221D84801F0B6F9002836
:100EA000F9D0D64801F060F9C6B20021D34801F06C
:100EB00059F900BF0221D14801F0A7F90028F9D063
:100EC000CE4801F051F9C6B21021CD4800F069FBBF
:100ED0003046BDE8F0812DE9F04106460D4610216F
:100EE000C74800F060FB2F46E81705EB1060C0F321
:100EF0000F21C24801F036F900BF0221BF4801F0BE
:100F000084F90028F9D02946BC4801F02BF900BF2C
:100F10000221BA4801F079F90028F9D0082000EB45
:100F2000461040F00201B54801F01CF900BF022153
:100F3000B24801F06AF90028F9D0B04801F014F97C
:100F400004460021AD4801F00DF900BF0221AB4875
:100F500001F05BF90028F9D0A84801F005F9044632
:100F60000021A64801F0FEF800BF0221A34801F0CD
:100F70004CF90028F9D04FF6FF7000EA04249F488E
:100F800001F0F2F8204484B210219D4800F009FBE2
:100F90002046BDE8F0812DE9F05F80460E4626210F
:100FA0004046FFF798FF074617B90020BDE8F09FBD
:100FB00040F2B450874200DD074628214046FFF743
:100FC0008AFF0446A146C4F30A0410218C4800F0AD
:100FD000EAFAA346E01704EB10600112874801F01B
:100FE000C1F800BF0221854801F00FF90028F9D0AF
:100FF0002146824801F0B6F800BF02217F4801F087
:1010000004F90028F9D0182000EB48117B4801F0C2
:10101000A9F800BF0221794801F0F7F80028F9D0BB
:10102000764801F0A1F800F0FF0AE019B0F5006F72
:1010300019DA002514E00021704801F093F800BF90
:1010400002216E4801F0E1F80028F9D06B4801F068
:101050008BF800F0FF0A86F800A0761C681C85B2A9
:10106000BD42E8DB63E0C4F5006084B2002514E013
:101070000021624801F076F800BF02215F4801F0CC
:10108000C4F80028F9D05D4801F06EF800F0FF0ABE
:1010900086F800A0761C681C85B2A542E8DB10210A
:1010A000574800F07EFA1021554800F07CFA0021E4
:1010B000524801F057F800BF0221504801F0A5F84E
:1010C0000028F9D000214D4801F04CF800BF022162
:1010D0004A4801F09AF80028F9D0182000EB48118E
:1010E000464801F03FF800BF0221444801F08DF866
:1010F0000028F9D0414801F037F800F0FF0A14E069
:1011000000213E4801F02EF800BF02213B4801F0CB
:101110007CF80028F9D0394801F026F800F0FF0AE1
:1011200086F800A0761C681C85B2BD42E8DB102161
:10113000334800F036FA09EB07001FFA80F94A46F7
:1011400028214046FFF775FD402201214046FFF768
:101150002CFD38462AE72DE9F04707460E46904613
:1011600024213846FFF7B7FE0446A146C4F30A041B
:101170001021234800F017FAA246E01704EB106094
:1011800001121E4800F0EEFF00BF02211B4801F0D3
:101190003CF80028F9D02146184800F0E3FF00BFD2
:1011A0000221164801F031F80028F9D0102000EB98
:1011B000471040F00401114800F0D4FF00BF0221A5
:1011C0000E4801F022F80028F9D004EB0800B0F531
:1011D000006F17DA00250DE03178084800F0C2FFF3
:1011E00000BF0221054801F010F80028F9D0761C54
:1011F000681C85B24545EFDB57E000000030014038
:1012000000080140C4F5006084B200250DE031788B
:101210005B4800F0A7FF00BF0221594800F0F5FF2E
:101220000028F9D0761C681C85B2A542EFDB10219E
:10123000544800F0B6F91021524800F0B4F90021EA
:101240004F4800F08FFF00BF02214D4800F0DDFF46
:101250000028F9D000214A4800F084FF00BF022195
:10126000474800F0D2FF0028F9D0102000EB4710CB
:1012700040F00401424800F075FF00BF02214048E1
:1012800000F0C3FF0028F9D00DE031783C4800F0B1
:1012900069FF00BF02213A4800F0B7FF0028F9D0EB
:1012A000761C681C85B24545EFDB1021354800F0FF
:1012B00078F909EB08001FFA80F94A4624213846DC
:1012C000FFF7B7FC202201213846FFF76EFCBDE88E
:1012D000F08710B50446012200212046FFF765FC87
:1012E000012211462046FFF760FC0520FFF766FA51
:1012F00003212046FFF7A3FD132806D01022012169
:101300002046FFF752FC002010BD04220121204698
:10131000FFF74BFC0120F7E710B50446012200213E
:101320002046FFF742FC012211462046FFF73DFC14
:101330000520FFF743FA03212046FFF780FD13281D
:1013400006D0102201212046FFF72FFC002010BDFF
:10135000022201212046FFF728FC0520FFF72EFA84
:1013600003212046FFF76BFD142806D0102201212F
:101370002046FFF71AFC0020E9E70120E7E700001C
:10138000003001400008014010B50446CC488442BA
:1013900008D10121042000F02DFB0021042000F0E1
:1013A00029FB46E0C748844208D10121082000F00B
:1013B00021FB0021082000F01DFB3AE0C2488442D6
:1013C00008D10121102000F015FB0021102000F0B1
:1013D00011FB2EE0BD48844208D10121202000F0FD
:1013E00009FB0021202000F005FB22E0B8488442E0
:1013F00008D10121402000F0FDFA0021402000F03A
:10140000F9FA16E0B348844208D10121802000F0A7
:10141000F1FA0021802000F0EDFA0AE0AE488442A3
:1014200007D10121801500F0E5FA0021A01500F098
:10143000E1FA10BD10B50121084600F0DBFA0021E9
:10144000012000F0D7FA10BD2DE9F0410246002539
:101450000026002000230024002791F803C00CF090
:101460000F0591F803C00CF0100CBCF1000F03D075
:1014700091F802C04CEA050591F800C0BCF1000FDC
:1014800031D0146800202BE04FF0010C0CFA00F36F
:10149000B1F800C00CEA03069E4220D183004FF051
:1014A0000F0C0CFA03F7BC4305FA03FC4CEA0404E6
:1014B00091F803C0BCF1280F06D14FF0010C0CFAD3
:1014C00000FCC2F814C00AE091F803C0BCF1480F58
:1014D00005D14FF0010C0CFA00FCC2F810C0401C02
:1014E0000828D1D31460B1F800C0BCF1FF0F34DD7F
:1014F000546800202EE000F1080C4FF0010808FAB3
:101500000CF3B1F800C00CEA03069E4221D183001F
:101510004FF00F0C0CFA03F7BC4305FA03FC4CEA3E
:10152000040491F803C0BCF1280F05D100F1080CA8
:1015300008FA0CF8C2F8148091F803C0BCF1480F07
:1015400007D100F1080C4FF0010808FA0CF8C2F8B6
:101550001080401C0828CED35460BDE8F0814FF6BF
:10156000FF710180022181700421C1707047024621
:10157000002093680B400BB1012000E00020704771
:101580000146886880B2704702460020D3680B404D
:101590000BB1012000E0002070470146C86880B20E
:1015A000704701617047416170470AB1016100E015
:1015B00041617047C16070474FF480320A438261D5
:1015C0008161826182698269704702460020434BD3
:1015D00018684FF68073184040EA021008433F4BEA
:1015E000186070473E49C8617047F0B50A4600234D
:1015F00000240021002500F00046B6F1004F02D182
:10160000364EF16901E0354E7168C0F3034583B28F
:1016100000F44016B6F5401F08D121F070612F4E3E
:10162000766826F070662D4F7E6012E000F480161A
:10163000B6F5801F06D1032606FA05F4A14341F052
:10164000706106E0460D360103FA06F6B14341F03B
:10165000706122B1460D360103FA06F6314300F0FF
:101660000046B6F1004F02D11C4EF16101E01B4E65
:101670007160F0BD30B500228B071C0F0F2303FAF9
:1016800004F2164B08338C1053F824309343134C58
:1016900008348D1044F8253023468C1053F824303C
:1016A0008C07240F00FA04F423430C4C08348D10EB
:1016B00044F8253030BD0A49DC310860704700002D
:1016C00000080140000C01400010014000140140DE
:1016D00000180140001C01400020014000000140B2
:1016E00000002042DF48006840F00100DD4908604A
:1016F00008464068DC490840DA4948600846006806
:10170000DA490840D74908600846006820F480207C
:1017100008600846406820F4FE0048604FF41F004F
:1017200088607047CF49096821F48031CD4A116043
:101730001146096821F480211160B0F5803F03D083
:10174000B0F5802F0ED106E0C649096841F480311A
:10175000C44A116007E0C349096841F4A021C14AA5
:10176000116000E000BF00BF704710B501460022C5
:10177000002300204A11012A02D1BA4C236806E056
:10178000022A02D1B74C236A01E0B64C636A01F029
:101790001F02012494401C400CB1012000E00020F5
:1017A00010BD38B5002000900024002500BF312076
:1017B000FFF7DBFF05460098401C00900098B0F54D
:1017C000A06F01D0002DF2D03120FFF7CEFF08B17D
:1017D000012400E00024204638BD01460020A14A33
:1017E000106820F0F80040EAC10010607047A0497E
:1017F00008607047024600209A4B586820F47C101D
:1018000042EA01031843974B5860704798490866AD
:10181000704701460020934A506820F003000843B7
:10182000506070478F48406800F00C0070470146D8
:1018300000208C4A506820F0F00008435060704748
:1018400001460020874A506820F4E0600843506059
:10185000704701460020834A506820F4605040EAF7
:10186000C1005060704729B17E4A527A02437D4BD5
:101870005A7204E07B4A527A82437A4B5A7270471A
:101880007B49D8310860704701460020754A50688E
:1018900020F440400843506070470021714A2032D4
:1018A0001170704A82F82010012802D004280AD151
:1018B00004E001216B4A2032117005E00521694ADC
:1018C0002032117000E000BF00BF70476949086016
:1018D00070476449096A0143624A11627047654969
:1018E00044390860704730B50021002200240023ED
:1018F0005C4D6D6805F00C0121B1042905D0082963
:1019000023D105E05C4D056022E05B4D05601FE0E2
:10191000544D6D6805F47012524D6D6805F48034B5
:10192000022505EB92421CB9544D554305600BE06E
:101930004C4D6D6805F400351DB1504D55430560A3
:1019400002E04D4D5543056002E04B4D056000BF80
:1019500000BF444D6D6805F0F0010909484D6B5C0E
:101960000568DD4045603F4D6D6805F4E061090A9A
:10197000434D6B5C4568DD4085603A4D6D6805F40C
:101980006051C90A3E4D6B5C4568DD40C560354D10
:101990006D6805F44041890B3A4D6B5CC568B5FB39
:1019A000F3F5056130BD29B12E4A526902432D4B32
:1019B0005A6104E02B4A526982432A4B5A617047AC
:1019C00029B1284A92690243264B9A6104E0254ACC
:1019D00092698243234B9A61704729B1214AD269A7
:1019E0000243204BDA6104E01E4AD26982431D4B58
:1019F000DA61704729B11B4AD2680243194BDA6099
:101A000004E0184AD2688243164BDA60704729B165
:101A1000144A12690243134B1A6104E0114A126915
:101A20008243104B1A617047124940390860704771
:101A30000F49C86470470B49C87170470948406A2C
:101A400040F0807007494862704701460020054A0F
:101A500092680A400AB1012000E000207047014965
:101A600088727047001002400000FFF8FFFFF6FE8A
:101A7000000042428004424200127A0000093D0008
:101A80001C0000202C00002031490143314A116024
:101A9000704770B5002100230F22C47804B32D4C89
:101AA000246804F4E064C4F5E064210AC1F104038D
:101AB000CA40447804FA03F18478144021430901B0
:101AC000254C0678A155047804F01F050124AC408C
:101AD00005786D11AD0005F1E025C5F8004109E07C
:101AE000047804F01F050124AC401C4D06787611E3
:101AF00045F8264070BD1A4A0A400243154B1B1F89
:101B00001A60704739B1134A121D12680243114B13
:101B10001B1D1A6006E00F4A121D126882430D4B0E
:101B20001B1D1A607047042808D14FF0E021096995
:101B300041F004014FF0E022116107E04FF0E02195
:101B4000096921F004014FF0E022116170470000A3
:101B50000000FA050CED00E000E400E080E100E0A8
:101B600080FFFF1F10B50446FB48844209D10121C4
:101B70008803FFF73FFF00214FF48040FFF73AFF53
:101B800032E0F648844209D101214804FFF73FFFC3
:101B900000214FF40030FFF73AFF25E0F04884427F
:101BA00009D101218804FFF732FF00214FF4802082
:101BB000FFF72DFF18E0EB48844209D10121C8044A
:101BC000FFF725FF00214FF40020FFF720FF0BE077
:101BD000E548844208D101210805FFF718FF0021DC
:101BE0004FF48010FFF713FF10BD2DE9F04786B0CA
:101BF00005460E460024A24600BFA1460027B08934
:101C000000B100BF2F462C8A4CF6FF700440F088CC
:101C100004432C82AC894EF6F3100440B08831891D
:101C20000843718908430443AC81AC8A4FF6FF40F6
:101C30000440B0890443AC8201A8FFF754FEC648B3
:101C4000874202D1DDF810A001E0DDF80CA0A889E0
:101C500000F4004040B10AEBCA0000EB0A10316802
:101C60004900B0FBF1F807E00AEBCA0000EB0A10EC
:101C700031688900B0FBF1F86420B8FBF0F0040192
:101C80002009642101FB1089A88900F4004040B1BB
:101C9000322000EBC900B0FBF1F000F00700044374
:101CA00008E0322000EB09106421B0FBF1F000F0F5
:101CB0000F0004432C8106B0BDE8F0874FF41651A5
:101CC000016000218180C18001810C2141810021BE
:101CD0008181704710B502460020108A4FF2FF0341
:101CE00018400B884C8823438C882343CC8823439B
:101CF0001843108210BD0021018041808180C18085
:101D0000704721B1828942F40052828104E08289C5
:101D10004DF6FF731A4082817047F0B503460024E8
:101D200000260025002040F66A17B94200D100BF06
:101D30001846C1F3421401F01F06012707FA06F501
:101D4000012C01D10C3004E0022C01D1103000E054
:101D500014301AB107682F43076002E00768AF43E9
:101D60000760F0BD1AB1838A0B43838202E0838A45
:101D70008B4383827047028A4FF6F0731A400282C7
:101D8000028A0A430282704782894FF2FF731A4027
:101D9000828182890A438281704721B1828942F01F
:101DA0000202828104E082894FF6FD731A4082812B
:101DB0007047028A4FF6DF731A400282028A0A4392
:101DC0000282704721B1028A42F48042028204E01A
:101DD000028A4BF6FF731A4002827047C1F3080271
:101DE0008280704701468888C0F308007047818967
:101DF00041F0010181817047028BD2B20283028BD4
:101E000042EA012202837047028B02F47F4202837E
:101E1000028B0A430283704721B1828A42F020027A
:101E2000828204E0828A4FF6DF731A408282704712
:101E300021B1828A42F01002828204E0828A4FF647
:101E4000EF731A408282704721B1828A42F0080201
:101E5000828204E0828A4FF6F7731A4082827047CA
:101E600021B1828942F40042828103E08289C2F377
:101E70000E028281704721B1828A42F4006282821E
:101E800004E0828A4FF2FF731A4082827047828A8E
:101E90004FF6FB731A408282828A0A43828270471D
:101EA00021B1828A42F00202828204E0828A4FF6E5
:101EB000FD731A408282704702460020B1F5007F10
:101EC00000D100BF13880B400BB1012000E00020BF
:101ED000704701F40072B2F5007F00D100BFCA4321
:101EE0000280704770B502460024002300250020C0
:101EF00040F66A16B14200D100BFC1F3421501F0AD
:101F00001F03012606FA03F3012D02D196893340FF
:101F100006E0022D02D1168A334001E0968A334052
:101F20000C12012606FA04F41688344013B10CB1E1
:101F3000012000E0002070BD10B50022002340F613
:101F40006A14A14200D100BF0A1201249440A3B236
:101F5000DC43048010BD0000003801400044004014
:101F600000480040004C00400050004010B50446BE
:101F7000BE48844208D101218014FFF73BFD0021B7
:101F8000A014FFF737FD16E0B948844208D10121BB
:101F90000014FFF73CFD00212014FFF738FD0AE094
:101FA000B448844207D10121C013FFF730FD00215E
:101FB000E013FFF72CFD10BD10B50022028802F4DB
:101FC00041520B884C8823438C882343CC8823437D
:101FD0000C8923434C8923438C892343CC89234395
:101FE0001A430280838B4FF2FF74234083830B8A52
:101FF000038210BD2DE9F04F85B005460C464FF029
:10200000000902274FF000084FF0010B0026B246EE
:10201000A88B4FF240010840A88302202884B5F81D
:102020001C90A068022801D100BF38E0A08810B938
:102030004FF0010B01E04FF0020B8D48854200D1BB
:1020400000E000BF6846FFF74EFCDDF800A0E08826
:10205000B0F5007F0AD14FEA1A2000EB8000400063
:10206000A168B0FBF1F0401D86B20BE04FEA4B10C7
:10207000BAFBF0F000EB80004000A168B0FBF1F08B
:10208000401D86B20A20B6FBF0F606F00108A6EB6A
:102090000800C0F34F074FF6FF7000EA0828022F30
:1020A00001DBFF2F02DD02274FF00008E08840EA45
:1020B000080038432884A088A18908436188084320
:1020C0002188084340F4006040EA0909A5F81C9003
:1020D00005B0BDE8F08F0021018041808180C18082
:1020E000018141818181C1810721018270470021E5
:1020F000018041808180C180022181600021818135
:10210000704721B1028842F04002028004E0028858
:102110004FF6BF731A400280704721B1828B42F4A0
:102120008062828304E0828B4FF6FF331A40828301
:10213000704730B5002400230C110125A540ABB237
:102140001AB185881D43858002E085889D4385807E
:1021500030BD1AB183880B43838002E083888B43B0
:1021600083807047818170470146888970474FF6A8
:10217000FF62914204D0028842F48072028004E03F
:1021800002884FF6FF631A400280704721B18288AF
:1021900042F00402828004E082884FF6FB731A400A
:1021A0008280704702884FF2FF731A4002800288D3
:1021B0000A4302807047018841F4805101807047D2
:1021C00021B1028842F40052028004E002884DF6F8
:1021D000FF731A400280704702460020012901D097
:1021E000108B00E0908A70470146088A7047B1F56D
:1021F000804F04D1028842F48042028004E00288C9
:102200004BF6FF731A400280704702460020138984
:102210000B400BB1012000E000207047CA4302814F
:102220007047F0B50246002000240023002501F08D
:102230000F070126BE40B4B20B1101269E40B3B277
:10224000968806EA03051689264016B10DB10120CD
:1022500000E00020F0BD10B5002201F00F040123C2
:10226000A3409AB2D343038110BD00000030014067
:1022700000380040003C00400CB500200190009068
:102280006C48006840F480306A49086000BF6948C3
:10229000006800F4003000900198401C0190009804
:1022A00018B90198B0F5A06FF1D16248006800F448
:1022B000003010B10120009001E000200090009853
:1022C000012843D15C48006840F010005A4908607A
:1022D0000846006820F0030008600846006840F0E7
:1022E0000200086053484068524948600846406808
:1022F00048600846406840F480604860084640688E
:1023000020F47C1048600846406840F4E8104860BB
:102310000846006840F08070086000BF45480068CB
:1023200000F000700028F9D04248406820F0030017
:10233000404948600846406840F00200486000BFDD
:102340003C48406800F00C000828F9D10CBD10B5DD
:10235000FFF792FF10BD10B53648006840F001004D
:1023600034490860084640683449084031494860AB
:1023700008460068324908402E490860084600684F
:1023800020F4802008600846406820F4FE00486081
:102390004FF41F008860FFF7DAFF4FF00060294913
:1023A000086010BD10B5002100200022214B5B68A1
:1023B00003F00C0121B1042906D0082928D107E037
:1023C000214B224C236027E01F4B204C236023E04D
:1023D000184B5B6803F47010164B5B6803F4803293
:1023E000022303EB904022B9194B4343174C23605F
:1023F0000DE0104B5B6803F4003323B1144B4343EF
:10240000124C236003E0104B4343104C236003E065
:102410000D4B0E4C236000BF00BF064B5B68C3F33F
:1024200003130C4CE15C094B1B68CB40074C236049
:1024300010BD000000100240002002400000FFF824
:10244000FFFFF6FE08ED00E000127A0030000020E9
:1024500000093D00340000202DE9F05F06460D46DE
:102460004FF0000B2888052848D170784FEA0029E2
:10247000B07840EA090909F101001FFA80F9F07803
:10248000040230790443012C35DBB4F5FA6F32DAFB
:10249000374600202880012007F8010B2888401CBF
:1024A000288004F0070040B12046E11704EB517189
:1024B000C910491C01F0FF0805E02046E11704EBB4
:1024C0005171C1F3C70807F8018B2888401C288088
:1024D0000023224649463846FDF7D6FF8246BAF128
:1024E000000F04D0504600F0C2FA834608E0288866
:1024F0004044288004E04FF0030B01E04FF0030B51
:102500005846BDE8F09F2DE9F84304460F464FF0CA
:1025100000083888052829D160780502A07805438D
:10252000681C85B22079F0B9E078FF2801D0E07806
:10253000C8B900208DF80100E078FF2803D1012000
:102540008DF8000002E000208DF8000001231A46FB
:1025500029466846FDF798FF06464EB1304600F022
:1025600086FA804604E04FF0030801E04FF00308CC
:102570004046BDE8F8832DE9F05F05460E464FF072
:10258000000B3088052839DD68780702A8780743F2
:10259000781C87B2E87804022879044395F805A0EE
:1025A00004F0070040B12046E11704EB5171C91057
:1025B000491C01F0FF0805E02046E11704EB5171CA
:1025C000C1F3C708012C16DBB4F5F66F13DCD04558
:1025D00011D1012322463946A81DFDF755FF81463A
:1025E000B9F1000F04D0484600F041FA834607E0F5
:1025F0000520308004E04FF0030B01E04FF0030BA7
:102600005846BDE8F09F2DE9F05F06460D464FF0B5
:10261000000B2888052847D170784FEA0029B07848
:1026200040EA090909F101001FFA80F9F078040273
:1026300030790443012C34DBB4F5FA6F31DA3746D4
:1026400000202880022007F8010B2888401C2880E1
:1026500004F0070040B12046E11704EB5171C910A6
:10266000491C01F0FF0805E02046E11704EB517119
:10267000C1F3C70807F8018B2888401C2880224630
:1026800049463846FDF749FF8246BAF1000F04D0AB
:10269000504600F0ECF9834608E028884044288042
:1026A00004E04FF0030B01E04FF0030B5846BDE888
:1026B000F09F2DE9F04104460F464FF0000838889E
:1026C000052812D160780502A0780543681C85B200
:1026D00001231A462946E01CFDF779FE064636B16D
:1026E000304600F0C4F9804601E04FF00308404650
:1026F000BDE8F0812DE9F04704460E464FF0000A90
:102700003088062828DB60780702A0780743781C09
:1027100087B2E07805022079054394F80590012DF1
:1027200017DB782D15DC6806000E484511D1012312
:102730002A463946A01DFDF74AFE8046B8F1000F33
:1027400004D0404600F093F9824607E0052030802F
:1027500004E04FF0030A01E04FF0030A5046BDE8E1
:10276000F0872DE9F04705460C464FF0000A208817
:10277000052837D168784FEA0028A87840EA080889
:1027800008F101001FFA80F8E87806022E79012E80
:1027900025DB7D2E23DC2F4600202080032007F838
:1027A000010B2088401C20807006000E07F8010BEA
:1027B0002088401C20800023324641463846FDF7E1
:1027C00006FE8146B9F1000F04D0484600F04FF9EB
:1027D000824609E0208800EB4600208004E04FF0AC
:1027E000030A01E04FF0030A5046BDE8F0872DE9E7
:1027F000FC5F04460D460020009028880A285DDB17
:1028000060784FEA002AA07840EA0A0A0AF101003B
:102810001FFA80FAE07806022079064360794FEAD1
:10282000002BA07940EA0B0B0BF101001FFA80FB93
:10283000E0790702207A0743607A0190012E3BDBA2
:102840007D2E39DC012F37DB792F35DC79000198BB
:10285000814231D101233A46594604F10A00FDF77D
:10286000B6FD8146B9F1000F1ED1A0460020288098
:10287000172008F8010B2888401C28807006000EDD
:1028800008F8010B2888401C288000233246514656
:102890004046FDF79CFD8146B9F1000F04D1288820
:1028A000022101FB06002880B9F1000F06D048463E
:1028B00000F0DDF8009001E0032000900098BDE8F2
:1028C000FC9F2DE9F04705460C464FF0000A208892
:1028D000052837D168784FEA0028A87840EA080828
:1028E00008F101001FFA80F8E8780602287906430B
:1028F000012E24DB7D2E22DA2F46002020800420AA
:1029000007F8010B2088401C20807006000E07F895
:10291000010B2088401C2080324641463846FDF796
:1029200092FD8146B9F1000F04D0484600F09FF8AF
:10293000824609E0208800EB4600208004E04FF04A
:10294000030A01E04FF0030A5046BDE8F08700009B
:102950002DE9F04105460E4617461C464FF000088B
:10296000A01C202826DA00201C490880084601887F
:102970000088401C194A1080194845540EB1FF22A6
:1029800000E00022154801880088401C134B188085
:1029900013484254002C0FDD01461A46128888184D
:1029A0002246394600F0B4FA0C48008820440B490E
:1029B000088001E04FF004084046BDE8F08170B5A2
:1029C00005460C46054802880549681C00F0A0FA37
:1029D00002480088401C2080002070BD4400002078
:1029E000080100202DE9F043044615461F46C8089B
:1029F000A1EBC0081FFA88FC07FA0CF81FFA88F749
:102A00004FF0010808FA05F8A8F101081FFA88F646
:102A1000A1EBC00806FA08F81FFA88F6225C00F15C
:102A2000010814F8088042EA082222EA060848EA67
:102A3000070222544FEA222900F1010804F8089005
:102A4000BDE8F083F0B503460C461546E208A4EB5A
:102A5000C20087B20120A840401E86B2995C501C7B
:102A6000185C41EA002139413140C8B2F0BD01464D
:102A700021B1012904D0072906D103E0002005E097
:102A8000022003E0062001E0042000BF00BF7047E1
:102A900070B504460025204600F0DCF900B9032596
:102AA000284670BD704710B500F0E6F910BD2DE95D
:102AB000FC4104460D4616464FF00508694601A83C
:102AC00000F0DBF990B10198807807020198C07896
:102AD00007436FB90198C01D2860BDF80000C01FF2
:102AE00030804FF00008FF20207001E04FF0050813
:102AF0004046BDE8FC812DE9F04781460E4614466C
:102B00000027F51FE01D1FFA80F8601C000A2871DD
:102B1000601C68714146284600F0BAF900B90527E3
:102B20003846BDE8F08700002DE9F04705460C4621
:102B300090469946089F00261CB1012C01DBF72C1A
:102B400001DD022610E09F48047000BF022600BF8E
:102B500000BF4EB900F05AF908B9032604E09A48BC
:102B600005700120994908703046BDE8F08770B5BE
:102B7000044600252046FFF78BFF051E03D00120E9
:102B8000924908701CE000F041F908B9032517E0EC
:102B90008F48904908609048904908609048914952
:102BA0000860914891490860002091490860FF2021
:102BB0008449087002208449087001208349087004
:102BC000284670BD2DE9F04105460E46002D3ADD40
:102BD0007F2D38DC00F093F9F6B1002412E085482F
:102BE00000EBC400406828B1824800EBC400406894
:102BF000B04206D17F4800F8345000EBC400466074
:102C000002E0641C102CEADB00BF102C01D0002075
:102C100000E00420074613E000240DE0754810F89A
:102C20003400A84207D10020724901F8340001EBBA
:102C3000C401486002E0641C102CEFDB00BF0027D9
:102C400000F05FF900E002273846BDE8F08110B5DA
:102C500000245E480078012806D16548006820B14C
:102C600063480068804700E00624204610BD10B588
:102C7000002456480078012806D15648006880474D
:102C800000205249087000E00624204610BD10B50F
:102C90004E48007838B951480068804701204B49B8
:102CA0000870002406E049480078012801D100247A
:102CB00000E00624204610BD38B5002543480078C2
:102CC00008B1062038BD684600F0ADF8012877D17C
:102CD0009DF8000030B1012805D0022818D0032843
:102CE0006DD16BE06BE0444A444945483D4B1B685D
:102CF000984705465DB942480078324909788842CC
:102D000002D03F48007810B9022000F084F856E065
:102D10003A48006800783B49087001203A49087039
:102D2000002417E0334810F8340000B914E03148AB
:102D300010F834003349097888420AD12D4800EB55
:102D4000C4002D4942682D48006890472E490870FC
:102D500002E0641C102CE5DB00BF2948007858B362
:102D600029480078C8B10020234908802548007808
:102D700040F08001204802880088401C1E4B1880CB
:102D80001E4800688154204802781846018800884F
:102D9000401C18801948006842540B4800780128EC
:102DA00000D100BF14480288144801680548007823
:102DB0000E4B1B689847054601E001E000BF00BFCD
:102DC00000207FE748000020490000204A00002042
:102DD000A52A000850000020A72A0008540000205F
:102DE000AF2A000858000020F72A00084C000020F5
:102DF0005C00002074000020FA000020F400002095
:102E0000F8000020F9000020FC00002000200F49FD
:102E1000087001207047014601200C4A10700C48D0
:102E200001700120704770B50446002507480078FE
:102E300038B1074800782070002004490870012547
:102E400001E000F02FF8284670BD0000FE000020D1
:102E5000FD00002070B50446002614B94FF4FB7540
:102E600000E025462846FDF753FC0020FEF754FA03
:102E70000126304670BD70477047024622481060F8
:102E80002248008808800020204B188001207047CD
:102E900070B504460D462A4621460020FEF75BF930
:102EA000012070BD70B51720FDF77FFF044604F0C8
:102EB000010010B302210020FDF7C1FF04462246A5
:102EC00002210020FDF771FE0F490020FEF763F894
:102ED00005460DB9002070BD0C4805800120FFF7A4
:102EE0009AFF04F0020010B10020FEF715FA04F07A
:102EF000080010B10020FEF70FFA0120EBE772B6D0
:102F0000704762B6704700002801002000010020D1
:102F100040EA01039B0703D009E008C9121F08C05B
:102F2000042AFAD203E011F8013B00F8013B521EDB
:102F3000F9D27047064C074D06E0E06840F0010307
:102F400094E8070098471034AC42F6D3FDF7F4F844
:102F5000A82F0008C82F0008014A024900F013B842
:102F6000770800080401002002E008C8121F08C109
:102F7000002AFAD170477047002001E001C1121FFA
:102F8000002AFBD170472DE9F04116460F46044652
:102F9000002503E03946B047641C6D1C20780028EA
:102FA000F8D12846BDE8F081C82F000800000020B5
:102FB00008010000682F0008D03000080801002038
:102FC00028050000782F0008E803AA00550099554D
:102FD0008855E8030000000099558855AAFE986EB0
:102FE00000000000000000000102030401020304CD
:102FF000060708090204060800A24A0400000000AF
:103000000000000001020304060708090000000098
:1030100000000200000000000000000000000000AE
:1030200000000000000000000000000000000000A0
:10303000000000000000000000000000110000007F
:10304000BF29000804000000C32800080300000096
:103050006327000810000000F526000806000000A5
:10306000B326000817000000EF2700080100000049
:103070005924000805000000072500080F00000083
:103080007725000802000000072600080000000065
:103090000000000000000000000000000000000030
:1030A0000000000000000000000000000000000020
:1030B0000000000000000000000000000000000010
:1030C0000000000000000000000000000000000000
:0400000508000145A9
:00000001FF
